:100000000C942A000C9447000C9447000C94470071
:100010000C9447000C9447000C9447000C94470044
:100020000C9447000C9447000C9447000C94470034
:100030000C9447000C9447000C9447000C94470024
:100040000C9447000C9447000C9447000C94470014
:100050000C94470011241FBECFE5D8E0DEBFCDBF12
:1000600010E0A0E6B0E0E0ECF0E002C005900D92F8
:10007000A036B107D9F710E0A0E6B0E001C01D92AC
:10008000A036B107E1F70E9458000C945E000C9472
:1000900000008EBB9FBB70E07FBB6EBBE29AE19A13
:1000A000E199FECF08959FBB8EBBE09A8DB3089572
:1000B00083E690E062E50E944900FFCFF894FFCF0D
:00000001FF
