:100000000C942A000C9447000C9447000C94470071
:100010000C9447000C9447000C9447000C94470044
:100020000C9447000C9447000C9447000C94470034
:100030000C9447000C9447000C9447000C94470024
:100040000C9447000C9447000C9447000C94470014
:100050000C94470011241FBECFE5D8E0DEBFCDBF12
:1000600010E0A0E6B0E0E8E1F9E002C005900D92F2
:10007000AE36B107D9F710E0AEE6B0E001C01D9290
:10008000AE36B107E1F70E9479040C948A040C940F
:100090000000843409F471C0853448F4823499F145
:1000A000833408F04DC0813409F083C00FC082361C
:1000B00051F1833620F4813609F07BC007C08336C6
:1000C00009F43EC0843609F074C057C0413069F469
:1000D0002AB381E090E0AC0102C0440F551F6A953D
:1000E000E2F7BA01622B6ABB08952AB381E090E07F
:1000F000AC0102C0440F551F6A95E2F7BA01609542
:1001000062236ABB0895413069F427B381E090E02F
:10011000AC0102C0440F551F6A95E2F7BA01622B89
:1001200067BB089527B381E090E0AC0102C0440FA3
:10013000551F6A95E2F7BA016095622367BB08957F
:10014000413069F424B381E090E0AC0102C0440F77
:10015000551F6A95E2F7BA01622B64BB089524B378
:1001600081E090E0AC0102C0440F551F6A95E2F7B0
:10017000BA016095622364BB0895413069F421B3EC
:1001800081E090E0AC0102C0440F551F6A95E2F790
:10019000BA01622B61BB089521B381E090E0AC010C
:1001A00002C0440F551F6A95E2F7BA0160956223B9
:1001B00061BB0895843409F471C0853448F48234F5
:1001C00099F1833408F04DC0813409F083C00FC029
:1001D000823651F1833620F4813609F07BC007C0A6
:1001E000833609F43EC0843609F074C057C04130EC
:1001F00069F42BB381E090E0AC0102C0440F551FBD
:100200006A95E2F7BA01622B6BBB08952BB381E0CC
:1002100090E0AC0102C0440F551F6A95E2F7BA01A5
:10022000609562236BBB0895413069F428B381E087
:1002300090E0AC0102C0440F551F6A95E2F7BA0185
:10024000622B68BB089528B381E090E0AC0102C046
:10025000440F551F6A95E2F7BA016095622368BBA7
:100260000895413069F425B381E090E0AC0102C00B
:10027000440F551F6A95E2F7BA01622B65BB0895DA
:1002800025B381E090E0AC0102C0440F551F6A9590
:10029000E2F7BA016095622365BB0895413069F4C5
:1002A00022B381E090E0AC0102C0440F551F6A9573
:1002B000E2F7BA01622B62BB089522B381E090E0BD
:1002C000AC0102C0440F551F6A95E2F7BA01609570
:1002D000622362BB0895843409F43DC0853440F440
:1002E0008234F9F0833450F5813409F040C00CC0F9
:1002F0008236B9F0833618F48136C9F505C08336E5
:10030000E9F08436A1F527C02BB381E090E0AC0181
:1003100002C0440F551F6A95E2F7BA0162276BBB12
:10032000089528B381E090E0AC0102C0440F551F4E
:100330006A95E2F7BA01622768BB089525B381E0A8
:1003400090E0AC0102C0440F551F6A95E2F7BA0174
:10035000622765BB089522B381E090E0AC0102C042
:10036000440F551F6A95E2F7BA01622762BB0895F0
:10037000843409F451C0853440F4823439F1833433
:10038000C0F5813409F05AC00EC08236F9F08336C8
:1003900020F4813609F052C006C0833651F184360C
:1003A00009F04CC039C029B381E090E0062E02C0AC
:1003B000880F991F0A94E2F730E08223932302C04A
:1003C000959587956A95E2F7982F38C026B381E016
:1003D00090E0062E02C0880F991F0A94E2F730E0E1
:1003E0008223932302C0959587956A95E2F7982F0B
:1003F00025C023B381E090E0062E02C0880F991F2C
:100400000A94E2F730E08223932302C09595879502
:100410006A95E2F7982F12C020B381E090E0062E93
:1004200002C0880F991F0A94E2F730E082239323D9
:1004300002C0959587956A95E2F7982F892F0895C0
:100440008434D9F0853438F4823499F0833498F4C4
:100450008134A1F40CC0823661F0833618F4813601
:1004600069F405C0833639F0843641F406C06ABBAE
:10047000089567BB089564BB089561BB08958434F3
:10048000D9F0853438F4823499F0833498F4813487
:10049000A1F40CC0823661F0833618F4813669F419
:1004A00005C0833639F0843641F406C06BBB08952D
:1004B00068BB089565BB089562BB08958434D9F084
:1004C000853438F4823499F0833498F48134A1F47B
:1004D0000CC0823661F0833618F4813669F405C0A9
:1004E000833639F0843641F406C099B305C096B31B
:1004F00003C093B301C090B3892F0895843409F1E8
:10050000853438F48234A9F08334B8F48134E1F4CA
:100510000CC0823671F0833618F48136A9F405C018
:10052000833659F0843681F40CC08BB380958BBB35
:10053000089588B3809588BB089585B3809585BB61
:10054000089582B3809582BB0895843409F471C004
:10055000853448F4823499F1833408F04DC08134F5
:1005600009F083C00FC0823651F1833620F4813602
:1005700009F07BC007C0833609F43EC0843609F019
:1005800074C057C0413069F42BB381E090E0AC01F6
:1005900002C0440F551F6A95E2F7BA01622B6BBB8C
:1005A00008952BB381E090E0AC0102C0440F551FC9
:1005B0006A95E2F7BA01609562236BBB08954130FA
:1005C00069F428B381E090E0AC0102C0440F551FEC
:1005D0006A95E2F7BA01622B68BB089528B381E0FF
:1005E00090E0AC0102C0440F551F6A95E2F7BA01D2
:1005F0006095622368BB0895413069F425B381E0BA
:1006000090E0AC0102C0440F551F6A95E2F7BA01B1
:10061000622B65BB089525B381E090E0AC0102C078
:10062000440F551F6A95E2F7BA016095622365BBD6
:100630000895413069F422B381E090E0AC0102C03A
:10064000440F551F6A95E2F7BA01622B62BB089509
:1006500022B381E090E0AC0102C0440F551F6A95BF
:10066000E2F7BA016095622362BB08956F7084342B
:1006700051F1853438F48234C1F08334E8F48134A4
:1006800041F50CC0823689F0833618F4813609F5BD
:1006900005C0833689F08436E1F415C08BB3807FC2
:1006A0008BBB8BB3682B6BBB089588B3807F88BBF3
:1006B00088B3682B68BB089585B3807F85BB85B3FD
:1006C000682B65BB089582B3807F82BB82B3682BA1
:1006D00062BB08956295607F843451F1853438F4AB
:1006E0008234C1F08334E8F4813441F50CC08236A1
:1006F00089F0833618F4813609F505C0833689F010
:100700008436E1F415C08BB38F708BBB8BB3682B31
:100710006BBB089588B38F7088BB88B3682B68BBA8
:10072000089585B38F7085BB85B3682B65BB08952D
:1007300082B38F7082BB82B3682B62BB089582E460
:1007400060E041E00E94DA008FE99FE00197F1F755
:1007500000C0000082E460E040E00E94DA008FE91F
:100760009FE00197F1F700C000000895CF93C82FD4
:10077000682F62956F7081E40E946A0382E461E0F1
:1007800041E00E94DA000E949F0381E46C2F0E94E6
:100790006A030E949F038FEC97E00197F1F700C076
:1007A0000000CF910895CF93C82F682F62956F7086
:1007B00081E40E946A0382E461E040E00E94DA0082
:1007C0000E949F0381E46C2F0E946A0382E461E02F
:1007D00040E00E94DA000E949F038FEC97E00197AF
:1007E000F1F700C00000CF91089581E464E041E09A
:1007F0000E94490081E465E041E00E94490081E4F3
:1008000066E041E00E94490081E467E041E00E9427
:10081000490082E460E041E00E94490082E462E035
:1008200041E00E94490082E461E041E00E94490009
:1008300082E462E040E00E94DA0082E00E94D3039A
:100840008FE19EE40197F1F700C0000088E20E946A
:10085000D3038FEC97E00197F1F700C000008EE022
:100860000E94D3038FEC97E00197F1F700C00000DE
:1008700081E00E94D3038FE19EE40197F1F700C06D
:10088000000086E00E94D3038FEC97E00197F1F718
:1008900000C00000089581E00E94D30308958330D2
:1008A00060F4613160F4813019F4962F915808C0DA
:1008B000823031F4962F915403C090E801C090E843
:1008C000892F0E94D3038FEC97E00197F1F700C0C6
:1008D00000000895CF93DF93EC018881882331F0E5
:1008E00021960E94B60389918823D9F7DF91CF9191
:1008F00008950E94F50380E690E00E946A0482E079
:1009000090E061E070E00E944F0488E690E00E9471
:080910006A04FFCFF894FFCF49
:0E0918006D6F68616D6564006F73616D6100E5
:00000001FF
